:100000000C9434000C9446000C9446000C9446006A
:100010000C9446000C9446000C9446000C94460048
:100020000C9446000C9446000C9446000C94460038
:100030000C9446000C9446000C9446000C94460028
:100040000C9446000C9446000C9446000C94460018
:100050000C9446000C9446000C9446000C94460008
:100060000C9446000C94460011241FBECFEFD8E03C
:10007000DEBFCDBF21E0A0E0B1E001C01D92A23003
:10008000B207E1F70E9448000C948F000C94000026
:100090008FEF84B98AB983E884BD85E085BD87E8A0
:1000A00093E1909387008093860080E680937C00A4
:1000B00086EA80937A00EAE7F0E0A9E7B0E0C8E8D2
:1000C000D0E02CE132E0808180648083808184FFF5
:1000D000FDCF8C9190E09093010180930001892BDA
:1000E00059F4198218824FEF89E698E14150804017
:1000F0009040E1F700C00000809100019091010163
:100100008F3F910501F7398328834FEF89E698E106
:10011000415080409040E1F700C00000D4CFF894F7
:02012000FFCF0F
:00000001FF
