:100000000C9434000C943E000C943E000C943E0082
:100010000C943E000C943E000C943E000C943E0068
:100020000C943E000C943E000C943E000C943E0058
:100030000C943E000C943E000C943E000C943E0048
:100040000C943E000C943E000C943E000C943E0038
:100050000C943E000C943E000C943E000C943E0028
:100060000C943E000C943E0011241FBECFEFD8E04C
:10007000DEBFCDBF0E9440000C9467000C940000CE
:1000800084E084B914BC16BC85B5856085BD80E06C
:1000900091E034E02BEFA89BFECF16BC95BB8F5FA1
:1000A0008631C8F335B94FE75DE365E14150504013
:1000B0006040E1F700C0000025B94FEF58E26EE064
:1000C000415050406040E1F700C00000E4CFF89498
:0200D000FFCF60
:00000001FF
