S013000032415F5461736B5F325F432E7372656379
S11300000C9434000C943E000C943E000C943E007E
S11300100C943E000C943E000C943E000C943E0064
S11300200C943E000C943E000C943E000C943E0054
S11300300C943E000C943E000C943E000C943E0044
S11300400C943E000C943E000C943E000C943E0034
S11300500C943E000C943E000C943E000C943E0024
S11300600C943E000C943E0011241FBECFEFD8E048
S1130070DEBFCDBF0E9440000C9457000C940000DA
S113008084E084B980E285B917B882E088B984E055
S1130090319B02C085B9FCCF2A982FEF38E09DE34D
S11300A0215030409040E1F700C00000F1CFF894B7
S10500B0FFCF7C
S9030000FC
