S00C0000444132422E737265631F
S11300000C9434000C944A000C943E000C943E0072
S11300100C943E000C943E000C943E000C943E0064
S11300200C943E000C943E000C943E000C943E0054
S11300300C943E000C943E000C943E000C943E0044
S11300400C943E000C943E000C943E000C943E0034
S11300500C943E000C943E000C943E000C943E0024
S11300600C943E000C943E0011241FBECFEFD8E048
S1130070DEBFCDBF0E9440000C946C000C940000C5
S113008084E084B985B98BB9259A2D9A81E08DBB1A
S11300907894FFCF1F920F920FB60F9211242F93D3
S11300A03F938F939F9395B184E0982795B92FEF51
S11300B038E09DE3215030409040E1F700C000005B
S11300C095B1892785B99F918F913F912F910F9079
S10F00D00FBE0F901F901895F894FFCFFE
S9030000FC
