S0110000444132435F54315F322E73726563A4
S11300000C9434000C943E000C943E000C943E007E
S11300100C943E000C943E000C943E000C943E0064
S11300200C943E000C943E000C943E000C943E0054
S11300300C943E000C943E000C943E000C943E0044
S11300400C943E000C943E000C943E000C943E0034
S11300500C943E000C943E000C943E000C943E0024
S11300600C943E000C943E0011241FBECFEFD8E048
S1130070DEBFCDBF0E9440000C9460000C940000D1
S113008084E084B980E285B917B882E088B916BCE7
S113009085B5856085BD81E094E0A89BFECF16BC44
S11300A085BB319B02C095B9F8CF2A982FEF38E071
S11300B04DE3215030404040E1F700C00000EDCF57
S10700C0F894FFCFDE
S9030000FC
