:100000000C9434000C9446000C9446000C9446006A
:100010000C9448000C9446000C9446000C94460046
:100020000C9446000C9446000C9446000C94460038
:100030000C9446000C9446000C9446000C94460028
:100040000C9446000C9446000C9446000C94460018
:100050000C9446000C9446000C9446000C94460008
:100060000C9446000C94460011241FBECFEFD8E03C
:10007000DEBFCDBF21E0A0E0B1E001C01D92A43001
:10008000B207E1F70E949B000C94AC000C940000B6
:100090001F920F920FB60F9211242F938F939F935D
:1000A000EF93FF93319937C0809100019091010146
:1000B000892B51F417BC2FEF8DE399E42150804038
:1000C0009040E1F700C00000809100019091010193
:1000D0000197B9F4EAE7F0E0808184FFFDCF8091D9
:1000E000780090917900909303018093020187BD7D
:1000F0002FEF8DE399E4215080409040E1F700C05C
:100100000000809100019091010121E082279093ED
:10011000010180930001FF91EF919F918F912F91A9
:100120000F900FBE0F901F90189510927C0087EED5
:1001300080937A00089580E48AB982E087B9419A71
:100140008093680080936C0083E884BD85E085BD62
:0C01500078940E949500FFCFF894FFCF38
:00000001FF
