S00F0000444132435F54332E7372656335
S11300000C9434000C943E000C943E000C943E007E
S11300100C943E000C943E000C943E000C943E0064
S11300200C943E000C943E000C943E000C943E0054
S11300300C943E000C943E000C944F000C943E0033
S11300400C943E000C943E000C943E000C943E0034
S11300500C943E000C943E000C943E000C943E0024
S11300600C943E000C943E0011241FBECFEFD8E048
S1130070DEBFCDBF0E9440000C9475000C940000BC
S1130080229AEEE6F0E080818260808316BC789448
S113009084B5826084BD85B5856085BDFFCF1F9220
S11300A00F920FB60F9211242F938F939F9384E096
S11300B085B92FE78DE395E1215080409040E1F729
S11300C000C000008BEF85B92FEF88E29EE021503D
S11300D080409040E1F700C000009F918F912F91E4
S11100E00F900FBE0F901F901895F894FFCF4D
S9030000FC
