S0110000444132435F54335F322E73726563A2
S11300000C9434000C943E000C943E000C943E007E
S11300100C943E000C943E000C943E000C943E0064
S11300200C943E000C943E000C943E000C943E0054
S11300300C943E000C943E000C9455000C943E002D
S11300400C943E000C943E000C943E000C943E0034
S11300500C943E000C943E000C943E000C943E0024
S11300600C943E000C943E0011241FBECFEFD8E048
S1130070DEBFCDBF0E9440000C9479000C940000B8
S113008084E084B980E285B917B882E088B916BCE7
S113009084B5826084BD85B5856085BDEEE6F0E0FB
S11300A08081826080837894FFCF1F920F920FB675
S11300B00F9211242F938F939F93A89BFECF16BC6E
S11300C081E085BB319B03C084E085B90AC02A98CE
S11300D02FEF88E09DE3215080409040E1F700C07D
S11300E000009F918F912F910F900FBE0F901F9042
S10900F01895F894FFCFFF
S9030000FC
